{
  "contractName": "Loteria",
  "abi": [
    {
      "inputs": [],
      "stateMutability": "nonpayable",
      "type": "constructor"
    },
    {
      "inputs": [],
      "name": "OWNER",
      "outputs": [
        {
          "internalType": "address",
          "name": "",
          "type": "address"
        }
      ],
      "stateMutability": "view",
      "type": "function",
      "constant": true
    },
    {
      "inputs": [
        {
          "internalType": "uint256",
          "name": "",
          "type": "uint256"
        }
      ],
      "name": "players",
      "outputs": [
        {
          "internalType": "address",
          "name": "",
          "type": "address"
        }
      ],
      "stateMutability": "view",
      "type": "function",
      "constant": true
    },
    {
      "inputs": [],
      "name": "enter",
      "outputs": [],
      "stateMutability": "payable",
      "type": "function",
      "payable": true
    },
    {
      "inputs": [],
      "name": "pickWinner",
      "outputs": [
        {
          "internalType": "address payable",
          "name": "",
          "type": "address"
        }
      ],
      "stateMutability": "nonpayable",
      "type": "function"
    },
    {
      "inputs": [],
      "name": "getPlayers",
      "outputs": [
        {
          "internalType": "address[]",
          "name": "",
          "type": "address[]"
        }
      ],
      "stateMutability": "view",
      "type": "function",
      "constant": true
    }
  ],
  "bytecode": "0x60a060405234801561001057600080fd5b5033606081901b6080526104cc610031600039600060dd01526104cc6000f3fe60806040526004361061004a5760003560e01c8063117803e31461004f5780635d495aea1461007a5780638b5b9ccc1461008f578063e97dcb62146100b1578063f71d96cb146100bb575b600080fd5b34801561005b57600080fd5b506100646100db565b60405161007191906103c9565b60405180910390f35b34801561008657600080fd5b506100646100ff565b34801561009b57600080fd5b506100a46101af565b60405161007191906103dd565b6100b9610211565b005b3480156100c757600080fd5b506100646100d6366004610360565b610282565b7f000000000000000000000000000000000000000000000000000000000000000081565b600080548190819061010f6102ac565b6101199190610476565b8154811061013757634e487b7160e01b600052603260045260246000fd5b60009182526020822001546040516001600160a01b03909116925082914780156108fc02929091818181858888f1935050505015801561017b573d6000803e3d6000fd5b506040805160008082526020820192839052905161019992906102e6565b50600180546101a791610452565b600155905090565b6060600080548060200260200160405190810160405280929190818152602001828054801561020757602002820191906000526020600020905b81546001600160a01b031681526001909101906020018083116101e9575b5050505050905090565b3467016345785d8a0000146102415760405162461bcd60e51b81526004016102389061042a565b60405180910390fd5b600080546001810182559080527f290decd9548b62a8d60345a988386fc84ba6bc95484008f6362f93160ef3e5630180546001600160a01b03191633179055565b6000818154811061029257600080fd5b6000918252602090912001546001600160a01b0316905081565b6000424460006001546040516020016102c89493929190610378565b6040516020818303038152906040528051906020012060001c905090565b82805482825590600052602060002090810192821561033b579160200282015b8281111561033b57825182546001600160a01b0319166001600160a01b03909116178255602090920191600190910190610306565b5061034792915061034b565b5090565b5b80821115610347576000815560010161034c565b600060208284031215610371578081fd5b5035919050565b600085825260208581840152604083018554868452828420845b828110156103b75781546001600160a01b031684529284019260019182019101610392565b50505093845290920195945050505050565b6001600160a01b0391909116815260200190565b6020808252825182820181905260009190848201906040850190845b8181101561041e5783516001600160a01b0316835292840192918401916001016103f9565b50909695505050505050565b6020808252600e908201526d125b9d985b1a5908185b5bdd5b9d60921b604082015260600190565b6000821982111561047157634e487b7160e01b81526011600452602481fd5b500190565b60008261049157634e487b7160e01b81526012600452602481fd5b50069056fea264697066735822122080db318a00c470492b6e393c0630db334794b5eedeadfbf90fb247ad29a6bc1d64736f6c63430008010033",
  "immutableReferences": {
    "48": [
      {
        "length": 32,
        "start": 221
      }
    ]
  },
  "source": "// SPDX-License-Identifier: MIT\npragma solidity ^0.8.1;\n\ncontract Lottery {\n\naddress public immutable OWNER;\naddress[] public players;\n\nuint256 private counter;\n\n     constructor() {\n      OWNER = msg.sender;\n     }\n     \n     function enter() public payable {\n          require(msg.value == 0.1 ether, \"Invalid amount\");\n\n          players.push(msg.sender);\n     }\n\n     function random() private view returns (uint) {\n          return \n             uint256(\n               keccak256(\n                    abi.encodePacked(\n                         block.timestamp, \n                         block.difficulty, \n                         players, \n                         counter\n                         )\n                         )\n                         );\n     }\n\n     function pickWinner() public returns (address payable) {\n           address payable winner = payable(players[random() % players.length]);\n\n           winner.transfer(address(this).balance);\n\n           players = new address[](0);\n\n           counter = counter + 1;\n           \n           return winner;\n     }\n\n     function getPlayers() public view returns (address[] memory) {\n          return players;\n     }\n\n     modifier onlyOwner {\n        require(OWNER == msg.sender, 'Only Owner');\n        _;\n     }\n}",
  "sourcePath": "/home/emersonlas/projetos/projetos-exchange/loteria/contracts/Lottery.sol",
  "compiler": {
    "name": "solc",
    "version": "0.8.1+commit.df193b15.Emscripten.clang"
  },
  "schemaVersion": "3.4.6",
  "updatedAt": "2022-03-26T12:49:27.253Z",
  "networkType": "ethereum",
  "devdoc": {
    "kind": "dev",
    "methods": {},
    "version": 1
  },
  "userdoc": {
    "kind": "user",
    "methods": {},
    "version": 1
  }
}